:100000008AEF01F00000000000EF00F000000000A7
:0A0010000000000000000000F3D71C
:08001C000AAE029E000E120064
:100024000B840BAE1DEF00F0010E036E026A016A31
:0A003400006A0A360232FF0E1200C5
:0E003E00026A016A006A086A036A000E120074
:10004C000C6A0E6A0250D8A43FEF00F001C002F017
:10005C0000C001F0006A0E860250D8A43FEF00F0F9
:10006C0001C002F0016A0E960E880250D8B451EF0E
:10007C0000F00E50035ED8A4D8A056EF00F0D89034
:10008C0002BE5BEF00F0003601360236032E46EF5F
:10009C0000F056EF00F0010E0C6ECBDF5EEF00F0BF
:1000AC00020E0C6EB9DF5EEF00F0040E0C6EB0DFCA
:0200BC00120030
:1000BE000B820BAE69EF00F00368026801680068FE
:0800CE000A360232FF0E120097
:1000D6000B800BAE77EF00F0026A0AAEFF0E026EDF
:0C00E600016E006E0A360232FF0E12009E
:1000F2000050086E0150006E016A026A036A0B6AC0
:100102000C6A960E036E0A6A00C001F008C000F085
:08011200086A026A9ADF12007C
:10011A00086A096A000E0762036412EF01F00250CE
:10012A0006180A6E075003267E0ED8A0A3EF00F029
:10013A00035ED8B016EF01F0A7EF00F0035ED8A077
:10014A001AEF01F0028E068E02C00EF001C00BF00B
:10015A0000C00DF000500402F4CF0CF0015005026B
:10016A00F4CF00F0F3CF08F00402F3500C26F45059
:10017A000822000E00220D500502F3500C26F450FE
:10018A000822000E002202500402F3500826F450FE
:10019A00002202500502016A000E0122F3500026D5
:1001AA00F45001220D500602F3500826F4500022A2
:1001BA00026A000E012202220B500602F3500026A8
:1001CA00F4500122000E02220E500602F3500126BC
:1001DA00F450022202BEFAEF00F008360036013669
:1001EA0002360306D8B41AEF01F00DEF01F0D880F9
:1001FA00800E08640030000E002201220222D8A0DC
:10020A000DEF01F0023201320032034A16EF01F01B
:10021A000AAE029E000E1CEF01F0010E0BDF1CEF6E
:10022A0001F0020E47DF1CEF01F0040EF6DE1200A9
:10023A000B6A0C6A0A6A0350D8B467EF01F0028E9F
:10024A008E0E035E03BE2FEF01F0D8B42FEF01F03C
:10025A006BEF01F0036C080E035CD8A046EF01F0C7
:10026A00036E013602C001F0026A080E035CD8A0D0
:10027A0046EF01F00136016A0350D8A4D89050EF36
:10028A0001F00350D8B450EF01F0D8900232013295
:10029A00032E4AEF01F00BBC01A05DEF01F0D8A0DC
:1002AA005DEF01F0012AD8B4022A02BE7AEF01F00A
:1002BA000AAE7FEF01F0021E011E012AD8B4022AFB
:1002CA007FEF01F0026A016A7FEF01F00B800BAE4B
:1002DA0083EF01F0026A0AAE83EF01F0FF0E026EAD
:1002EA00016E0A36023283EF01F0010E0C6EEEDE69
:1002FA0085EF01F0000E0C6E85EF01F0FF0E0C6E1B
:0A030A000150006E0250016E120057
:100314000E0EC16E910EC06E946A7C0ECB6E040EEE
:10032400CA6E0C0EBD6E0C0EBA6E010EC26EC28287
:10033400C2A201D0FDD7C4CF01F0006AC35000248B
:10034400196E000E01201A6E19C015F01AC016F0AD
:1003540019C000F01AC001F0CADE100E046E3E0E81
:10036400056E780E066E7B0E076ED5DE64DF00C068
:1003740017F001C018F01A50010A02E1FF0E191813
:1003840005E1010EBE6E010EBB6E11D016500108C0
:1003940002E11550FF0806E23E0E175CBE6E010E28
:1003A400BB6E05D0010EBE6E17503E08BB6EBDD7A6
:0203B400FFD771
:020000040030CA
:0E000000000C1F1EFF8381FF0FC00FE00F409A
:00000001FF
