:100000009CEF03F00000000000EF00F00000000093
:0A0010000000000000000000F3D71C
:10001C000B820BAE18EF00F00368026801680068F1
:08002C000A360232FF0E120039
:080034000AAE029E000E12004C
:10003C000B840BAE29EF00F0010E036E026A016A0D
:0A004C00006A0A360232FF0E1200AD
:0E005600026A016A006A086A036A000E12005C
:100064000CB074EF00F00CA21AEF01F00E6A000E4F
:1000740002648BEF00F0F00E0214D8A456EF00F0E7
:10008400023A01380F0B02260138F00B016E0038DA
:100094000F0B01260038F00B006E08380F0B0026FA
:1000A4000838F00B086E0E84D89002BE6FEF00F093
:1000B40008360036013602360E2A02BE6FEF00F013
:1000C40008360036013602360E2A02BE6FEF00F003
:1000D40008360036013602360E2A0E50036410EF3D
:1000E40001F0035E0BBC08AE15EF01F0D880800E62
:1000F40008640030000E002201220222D8A015EF6D
:1001040001F0023201320032034A1AEF01F015EF16
:1001140001F001C002F000C001F008C000F0086A5C
:10012400000E0E860264C2EF00F0F00E0214D8A492
:10013400AAEF00F0023A01380F0B02260138F00B47
:10014400016E00380F0B01260038F00B006E0E8490
:10015400D89002BE6FEF00F00036013602360E2A48
:1001640002BE6FEF00F00036013602360E2A02BEE0
:100174006FEF00F00036013602360E2A6FEF00F002
:1001840001C002F000C001F0006A000E0E960E8855
:100194000264EFEF00F0F00E0214D8A4DAEF00F0DE
:1001A400023A01380F0B02260138F00B016E0E845F
:1001B400D89002BE6FEF00F0013602360E2A02BE5E
:1001C4006FEF00F0013602360E2A02BE6FEF00F028
:1001D400013602360E2A6FEF00F001C002F0016A08
:1001E400000E0E8602641FEF01F0F00E0214D8A474
:1001F400FEEF00F0023A0E84D89002BE6FEF00F0DA
:1002040002360E2A02BE6FEF00F002360E2A02BE3C
:100214006FEF00F002360E2A6FEF00F0010E0C6E45
:100224000BDF22EF01F0020E0C6E02DF22EF01F071
:10023400040E0C6EF1DE22EF01F0080E0C6E09DFE5
:020244001200A6
:100246000B800BAE2FEF01F0026A0AAEFF0E026EB4
:0C025600016E006E0A360232FF0E12002C
:1002620000C008F00B6A0C6A9E0E036E0A6A026AEC
:0C027200016A006A020E0C6EF4DE12003D
:10027E00025006180E6E086A096A0B6A035007646C
:10028E0032EF02F006500A6E068E028E03500B6E8F
:10029E000750036E000E0B6482EF01F00B50075EE9
:1002AE00D8B423EF02F0070E0764F1EF01F0075EFA
:1002BE0000C008F001C000F002C001F0026A074E53
:1002CE0023EF02F00764C6EF01F0075E00C008F0EE
:1002DE0001C000F0016A074E23EF02F00764A4EF9D
:1002EE0001F0075E00C008F0006A074E23EF02F02F
:1002FE0007648BEF01F00AC002F005C001F004C0E4
:10030E0000F0086A4CEF03F0030E076496EF01F05D
:10031E00075E08380F0B086E074E23EF02F0D890D9
:10032E000832074E23EF02F0D8900832074E23EF23
:10033E0002F0D890083223EF02F0030E0764B5EFF7
:10034E0001F0075E08380F0B086E0038F00B082618
:10035E0000380F0B006E074E23EF02F0D8900032DC
:10036E000832074E23EF02F0D89000320832074EC3
:10037E0023EF02F0D8900032083223EF02F0030E82
:10038E000764DDEF01F0075E08380F0B086E0038CA
:10039E00F00B082600380F0B006E0138F00B00260C
:1003AE0001380F0B016E074E23EF02F0D890013289
:1003BE0000320832074E23EF02F0D890013200329D
:1003CE000832074E23EF02F0D89001320032083285
:1003DE0023EF02F0030E07640EEF02F0075E0838FB
:1003EE000F0B086E0038F00B082600380F0B006E4E
:1003FE000138F00B002601380F0B016E0238F00B9E
:10040E00012602380F0B026E074E23EF02F0D89032
:10041E000232013200320832074E23EF02F0D8903A
:10042E000232013200320832074E23EF02F0D8902A
:10043E000232013200320832096A000E0EAE17EF98
:10044E0003F0081E001E011E021E082A00220122B1
:10045E00022217EF03F00750D8A438EF02F04CEF4A
:10046E0003F0096A02C00AF0028E068E0750035C82
:10047E00076ED8B40AEF03F0070E0764D8EF02F048
:10048E00075E0450096E0550046E0650056E066A2E
:10049E00074E0AEF03F0070E0764ADEF02F0075E9A
:1004AE000450096E0550046E056A074E0AEF03F0FC
:1004BE00070E07648BEF02F0075E0450096E046AA4
:1004CE00074E0AEF03F0070E076472EF02F00AC040
:1004DE0002F04CEF03F0030E07647DEF02F0075EAF
:1004EE0009380F0B096E074E0AEF03F0D890093248
:1004FE00074E0AEF03F0D8900932074E0AEF03F0C9
:10050E00D89009320AEF03F0030E07649CEF02F055
:10051E00075E09380F0B096E0438F00B09260438F4
:10052E000F0B046E074E0AEF03F0D8900432093217
:10053E00074E0AEF03F0D89004320932074E0AEF45
:10054E0003F0D890043209320AEF03F0030E076469
:10055E00C4EF02F0075E09380F0B096E0438F00B7A
:10056E00092604380F0B046E0538F00B04260538E7
:10057E000F0B056E074E0AEF03F0D89005320432CA
:10058E000932074E0AEF03F0D890053204320932D1
:10059E00074E0AEF03F0D8900532043209320AEF03
:1005AE0003F0030E0764F5EF02F0075E09380F0B38
:1005BE00096E0438F00B092604380F0B046E05384B
:1005CE00F00B042605380F0B056E0638F00B0526CA
:1005DE0006380F0B066E074E0AEF03F0D890063260
:1005EE00053204320932074E0AEF03F0D890063274
:1005FE00053204320932074E0AEF03F0D890063264
:10060E00053204320932086A000E0EAE17EF03F0FF
:10061E00091E041E051E061E092A04220522062294
:10062E0009500826045000220550012206500222CD
:10063E000EBE2EEF03F0D8A03DEF03F002320132D2
:10064E0000320832033E3DEF03F047EF03F0D8B01F
:10065E0042EF03F0000E081E001E011E021E082AA5
:10066E000022012202220A7E42EF03F0010E0C6EDE
:10067E00F2DC4EEF03F0020E0C6EEDDC4EEF03F0EB
:10068E00040E0C6EC4DC4EEF03F0000E0C6E120066
:10069E000B6A0C6A0A6A0350D8B484EF03F00A9E00
:1006AE00028E860E035E03BE62EF03F0D8B462EFD5
:1006BE0003F087EF03F0036C080E035CD8A070EF15
:1006CE0003F0036E0236026A0350D8A4D89079EF75
:1006DE0003F00350D8B479EF03F0D8900232032E12
:1006EE0074EF03F00BBC02A084EF03F0D8A084EFEC
:1006FE0003F0022AD8B48EEF03F0016A93EF03F0F1
:10070E000B800BAE97EF03F0016A97EF03F0010E2B
:10071E000C6E92DD99EF03F0000E0C6E99EF03F064
:0A072E00FF0E0C6E0250006E120068
:10073800946A7C0ECB6E040ECA6E0C0EBD6E156AE2
:10074800800E006E800E010A005C02E1000E155C4E
:100758001AE215C0BEFFA30E0C6E550E0D6E0D2EBF
:10076800FED70C2EFCD715C000F077DD670E046E9F
:10077800660E056E460E066E820E076E7CDD8BDFFA
:0807880000C015F0DDD7FFD71A
:020000040030CA
:0E000000000C1F1EFF8381FF0FC00FE00F409A
:00000001FF
