:1000000092EF01F00000000000EF00F0000000009F
:0A0010000000000000000000F3D71C
:08001C000AAE029E000E120064
:100024000B840BAE1DEF00F0010E036E026A016A31
:0A003400006A0A360232FF0E1200C5
:0E003E00026A016A006A086A036A000E120074
:10004C000B800BAE32EF00F0026A0AAEFF0E026EAE
:0C005C00016E006E0A360232FF0E120028
:100068000B820BAE3EEF00F003680268016800687F
:080078000A360232FF0E1200ED
:100080000C6A0E6A0250D8A459EF00F001C002F0C9
:1000900000C001F0006A0E860250D8A459EF00F0AB
:1000A00001C002F0016A0E960E880250D8B46BEFC0
:1000B00000F00E50035ED8A4D8A070EF00F0D890E6
:1000C00002BE75EF00F0003601360236032E60EFF7
:1000D00000F070EF00F0010E0C6EB1DF78EF00F071
:1000E000020E0C6E9FDF78EF00F0040E0C6E96DFB0
:0200F0001200FC
:1000F2000050086E0150006E016A026A036A0B6AC0
:100102000C6A960E036E0A6A00C001F008C000F085
:08011200086A026AB4DF120062
:10011A000900F5CFE6FF0006FBE10106F9E112004E
:10012A00086A096A000E076203641AEF01F00250B6
:10013A0006180A6E075003267E0ED8A0ABEF00F011
:10014A00035ED8B01EEF01F0AFEF00F0035ED8A057
:10015A0022EF01F0028E068E02C00EF001C00BF0F3
:10016A0000C00DF000500402F4CF0CF0015005025B
:10017A00F4CF00F0F3CF08F00402F3500C26F45049
:10018A000822000E00220D500502F3500C26F450EE
:10019A000822000E002202500402F3500826F450EE
:1001AA00002202500502016A000E0122F3500026C5
:1001BA00F45001220D500602F3500826F450002292
:1001CA00026A000E012202220B500602F350002698
:1001DA00F4500122000E02220E500602F3500126AC
:1001EA00F450022202BE02EF01F008360036013650
:1001FA0002360306D8B422EF01F015EF01F0D880D9
:10020A00800E08640030000E002201220222D8A0CB
:10021A0015EF01F0023201320032034A1EEF01F0FB
:10022A000AAE029E000E24EF01F0010E03DF24EF56
:10023A0001F0020E14DF24EF01F0040EEEDE1200CC
:10024A000B6A0C6A0A6A0350D8B46FEF01F0028E87
:10025A008E0E035E03BE37EF01F0D8B437EF01F01C
:10026A0073EF01F0036C080E035CD8A04EEF01F0A7
:10027A00036E013602C001F0026A080E035CD8A0C0
:10028A004EEF01F00136016A0350D8A4D89058EF16
:10029A0001F00350D8B458EF01F0D890023201327D
:1002AA00032E52EF01F00BBC01A065EF01F0D8A0BC
:1002BA0065EF01F0012AD8B4022A02BE82EF01F0EA
:1002CA000AAE87EF01F0021E011E012AD8B4022AE3
:1002DA0087EF01F0026A016A87EF01F00B800BAE2B
:1002EA008BEF01F0026A0AAE8BEF01F0FF0E026E8D
:1002FA00016E0A3602328BEF01F0010E0C6EA1DE9E
:10030A008DEF01F0000E0C6E8DEF01F0FF0E0C6EFA
:0A031A000150006E0250016E120047
:100324000E0EC16E950EC06E946A7C0ECB6E040EDA
:10033400CA6E0C0EBD6E010EC26EC282C2A201D084
:10034400FDD7C4CF01F0006AC3500026000E01227D
:10035400CEDE100E046E3E0E056E780E066E7B0E1B
:0E036400076EE1DE70DF00C0BEFFE5D7FFD7F9
:020000040030CA
:0E000000000C1F1EFF8381FF0FC00FE00F409A
:00000001FF
